:100000000C945D000C9485000C9485000C94850084
:100010000C9485000C9485000C9485000C9485004C
:100020000C9485000C9485000C9485000C9485003C
:100030000C9485000C9485000C9485000C9485002C
:100040000C9483030C9485000C94F3030C94CD035F
:100050000C9485000C9485000C9485000C9485000C
:100060000C9485000C94850000000008000201003B
:100070000003040700000000000000000000000072
:10008000250028002B0000000000240027002A0083
:10009000040404040404040402020202020203032E
:1000A0000303030301020408102040800102040836
:1000B0001020010204081020BE0511241FBECFEF3E
:1000C000D8E0DEBFCDBF11E0A0E0B1E0E0EBF0E1B1
:1000D00002C005900D92AC34B107D9F721E0ACE431
:1000E000B1E001C01D92A23FB207E1F710E0CDE5FB
:1000F000D0E004C02197FE010E945008CC35D10702
:10010000C9F70E9425040C9456080C94000090E056
:10011000FC01EC55FF4F249180579F4FFC018491C7
:10012000882399F090E0880F991FFC01EA57FF4F50
:10013000A591B491FC01E458FF4F859194918FB73C
:10014000F894EC91E22BEC938FBF089590E0FC01C2
:10015000E859FF4F2491FC01EC55FF4F3491FC010D
:10016000E057FF4FE491EE23C9F0222339F023300A
:1001700001F1A8F4213019F1223029F1F0E0EE0F5D
:10018000FF1FE458FF4FA591B4918FB7F894EC91FD
:10019000611126C030953E233C938FBF08952730D0
:1001A000A9F02830C9F0243049F7809180008F7D74
:1001B00003C0809180008F7780938000DFCF84B56B
:1001C0008F7784BDDBCF84B58F7DFBCF8091B0006E
:1001D0008F778093B000D2CF8091B0008F7DF9CF20
:1001E0003E2BDACF3FB7F8948091510190915201A4
:1001F000A0915301B091540126B5A89B05C02F3F93
:1002000019F00196A11DB11D3FBFBA2FA92F982F3C
:100210008827BC01CD01620F711D811D911D42E037
:10022000660F771F881F991F4A95D1F708958F92FF
:100230009F92AF92BF92CF92DF92EF92FF924B01CB
:100240005C010E94F2006B017C010E94F2006C19BB
:100250007D098E099F09683E734081059105A8F3C9
:1002600021E0821A9108A108B10888EEC80E83E047
:10027000D81EE11CF11C81149104A104B10429F7DA
:10028000FF90EF90DF90CF90BF90AF909F908F90B6
:100290000895AF92BF92CF92DF92EF92FF920F93A9
:1002A0001F93CF93DF936C017B018B01040F151F0C
:1002B000EB015E01AE18BF08C017D10759F0699174
:1002C000D601ED91FC910190F081E02DC6010995D8
:1002D000892B79F7C501DF91CF911F910F91FF9085
:1002E000EF90DF90CF90BF90AF900895FC01538DB9
:1002F000448D252F30E0842F90E0821B930B541700
:1003000010F0CF96089501970895FC01918D828D8C
:10031000981761F0A28DAE0FBF2FB11D5D968C9125
:10032000928D9F5F9F73928F90E008958FEF9FEF64
:100330000895FC01918D828D981731F0828DE80F20
:10034000F11D858D90E008958FEF9FEF0895FC01DA
:10035000918D228D892F90E0805C9F4F821B9109A7
:100360008F739927089585E591E00E94A70121E008
:10037000892B09F420E0822F089580E090E0892BFA
:1003800029F00E94B30181110C9400000895FC0132
:10039000A48DA80FB92FB11DA35ABF4F2C91848DE6
:1003A00090E001968F739927848FA689B7892C9343
:1003B000A089B1898C91837080648C93938D848D96
:1003C000981306C00288F389E02D80818F7D808399
:1003D0000895EF92FF920F931F93CF93DF93EC0159
:1003E00081E0888F9B8D8C8D98131AC0E889F989DC
:1003F000808185FF15C09FB7F894EE89FF896083DF
:10040000E889F98980818370806480839FBF81E05F
:1004100090E0DF91CF911F910F91FF90EF900895A1
:10042000F62E0B8D10E00F5F1F4F0F731127E02E7C
:100430008C8D8E110CC00FB607FCFACFE889F989B4
:10044000808185FFF5CFCE010E94C701F1CFEB8DF2
:10045000EC0FFD2FF11DE35AFF4FF0829FB7F89488
:100460000B8FEA89FB8980818062CFCFCF93DF93A6
:10047000EC01888D8823B9F0AA89BB89E889F989BC
:100480008C9185FD03C0808186FD0DC00FB607FCF1
:10049000F7CF8C9185FFF2CF808185FFEDCFCE0124
:1004A0000E94C701E9CFDF91CF910895FC0101902F
:1004B0000020E9F73197AF01481B590BBC0185E5D6
:1004C00091E00C9449018F929F92AF92BF920F934B
:1004D0001F93CF93DF93CDB7DEB7A1970FB6F894F4
:1004E000DEBF0FBECDBF19A2423008F44AE08E0134
:1004F0000F5D1F4F842E912CB12CA12CA5019401CE
:100500000E942E08E62FB901CA01EA30F4F4E05D3A
:10051000D801EE938D01232B242B252B79F790E026
:1005200080E0109719F0CD010E945602A1960FB6F7
:10053000F894DEBF0FBECDBFDF91CF911F910F9119
:10054000BF90AF909F908F900895E95CE1CF4F925C
:100550005F926F927F928F929F92AF92BF92CF9253
:10056000DF92EF92FF920F931F93CF936B017C0169
:10057000742EAC019B010E942908882399F082E126
:1005800091E0CF911F910F91FF90EF90DF90CF906E
:10059000BF90AF909F908F907F906F905F904F90A3
:1005A0000C94560246015701E894B7F82FEF3FEF3D
:1005B0004FE75FE7C501B4010E94290881110DC012
:1005C0002FEF3FEF4FE75FE7C501B4010E945806E8
:1005D00018161CF486E191E0D4CF2FEF3FEF4FE7E0
:1005E0005FE4C701B6010E94B70718161CF48AE140
:1005F00091E0C7CF2FEF3FEF4FE75FECC701B601A8
:100600000E94580687FDF3CF20E030E0A901C70122
:10061000B6010E94580610E000E087FF0AC06DE2B4
:1006200085E591E00E94E9018C01F7FAF094F7F872
:10063000F094C0E060E070E080E09FE37C1641F061
:1006400020E030E040E251E40E945D06CF5FF6CF4B
:10065000A70196010E94EC052B013C010E94D606E1
:100660004B015C014AE00E9463027C01E00EF11E36
:10067000CC23C1F1C501B4010E9405079B01AC0167
:10068000C301B2010E94EB054B015C016EE285E5FE
:1006900091E00E94E901E80EF91EC15018F120E036
:1006A00030E040E251E4C501B4010E94BC072B01D7
:1006B0003C010E94D6064B01B12CA12C4AE0C50199
:1006C000B4010E946302E80EF91EC501B4010E9444
:1006D00005079B01AC01C301B2010E94EB054B0170
:1006E0005C01DBCFC701CF911F910F91FF90EF907D
:1006F000DF90CF90BF90AF909F908F907F906F9042
:100700005F904F9008951F920F920FB60F92112491
:100710002F933F938F939F93AF93BF9380914D01FE
:1007200090914E01A0914F01B091500130914C0138
:1007300023E0230F2D3758F50196A11DB11D2093FD
:100740004C0180934D0190934E01A0934F01B093C3
:1007500050018091510190915201A0915301B091AB
:1007600054010196A11DB11D809351019093520136
:10077000A0935301B0935401BF91AF919F918F917A
:100780003F912F910F900FBE0F901F90189526E864
:10079000230F0296A11DB11DD2CF1F920F920FB64B
:1007A0000F9211242F933F934F935F936F937F93F7
:1007B0008F939F93AF93BF93EF93FF9385E591E062
:1007C0000E94C701FF91EF91BF91AF919F918F91CF
:1007D0007F916F915F914F913F912F910F900FBE3D
:1007E0000F901F9018951F920F920FB60F92112421
:1007F0002F938F939F93EF93FF93E0916501F09177
:1008000066018081E0916B01F0916C0182FD1BC05B
:10081000908180916E018F5F8F7320916F0182179D
:1008200041F0E0916E01F0E0EB5AFE4F958F80931E
:100830006E01FF91EF919F918F912F910F900FBEBD
:100840000F901F9018958081F4CF789484B58260C2
:1008500084BD84B5816084BD85B5826085BD85B564
:10086000816085BD80916E00816080936E001092E2
:10087000810080918100826080938100809181005D
:1008800081608093810080918000816080938000EE
:100890008091B10084608093B1008091B00081604C
:1008A0008093B00080917A00846080937A00809178
:1008B0007A00826080937A0080917A0081608093D0
:1008C0007A0080917A00806880937A001092C1004B
:1008D00089E00E9487008DE00E94870089E00E94E5
:1008E000870060E089E00E94A600E0916501F09138
:1008F000660182E08083E0916101F09162011082E3
:10090000E0916301F09164018FEC808310926D019E
:10091000E0916901F0916A0186E08083E0916701CE
:10092000F0916801808180618083E0916701F0919E
:100930006801808188608083E0916701F09168019F
:10094000808180688083E0916701F09168018081F7
:100950008F7D808390E4D92E01E710E020E0E22E25
:1009600020E0F22ECAE0D0E0812C912C5401D092EC
:100970007C0080917A00806480937A0080917A0074
:1009800086FDFCCF8091780090917900092E000CB3
:10099000AA0BBB0B880E991EAA1EBB1E65E070E059
:1009A00080E090E00E941701219709F7C501B4018A
:1009B0000E94070720E030E040E251E40E945D061B
:1009C0002AE038E240EA5BE30E94BC0720E030E026
:1009D00048EC52E40E94BC074B015C0120E030E08F
:1009E00040EA51E40E94EB0520E030E040E251E4AF
:1009F0000E945D062B013C018EE191E00E945602AF
:100A000042E0C301B2010E94A70285E391E00E9487
:100A1000560220E030E0A901C301B2010E9458064D
:100A200087FD5BC020E030E040E85FE3C301B20136
:100A30000E94B707181634F4412C512C80E8682E18
:100A40008FE3782E20E030E04FE753E4C301B2019A
:100A50000E94BC070E94CF06161617060CF041C074
:100A6000EB016C33710514F4CCE3D0E061E08DE070
:100A70000E94A60089E00E9487002097C9F560E0E7
:100A800089E00E94A60088E391E00E94560241E0BE
:100A9000C501B4010E94A7028FE391E00E945602B3
:100AA000BE01DD0F880B990B4AE00E94630285E3CB
:100AB00091E00E94560268EC70E080E090E00E94B5
:100AC0001701E114F10409F44DCF0E94B30188230A
:100AD00009F448CF0E94000045CF412C512C32012F
:100AE000B1CF60E08DE00E94A600D0E0C0E0C2CFB0
:100AF000CF3FD10511F461E0C3CFF8018491833079
:100B000019F140F48130B1F08230C9F0C038D1051C
:100B100094F7B5CF873011F1883041F18430B1F7C7
:100B200080918000806280938000D0938B00C0937E
:100B30008A00A9CF84B5806884BDC7BDA4CF84B521
:100B4000806284BDC8BD9FCF809180008068809303
:100B50008000D0938900C093880095CF8091B00029
:100B600080688093B000C093B3008DCF8091B000B7
:100B700080628093B000C093B40085CFE5E5F1E0DA
:100B80001382128288EE93E0A0E0B0E08483958324
:100B9000A683B78384E091E09183808385EC90E025
:100BA0009587848784EC90E09787868780EC90E037
:100BB000918B808B81EC90E0938B828B82EC90E028
:100BC000958B848B86EC90E0978B868B118E128EA2
:100BD000138E148E08955058BB27AA270E9403062F
:100BE0000C947D070E946F0738F00E94760720F072
:100BF00039F49F3F19F426F40C946C070EF4E09539
:100C0000E7FB0C946607E92F0E948E0758F3BA178A
:100C1000620773078407950720F079F4A6F50C9412
:100C2000B0070EF4E0950B2EBA2FA02D0B01B901E1
:100C300090010C01CA01A0011124FF27591B99F052
:100C4000593F50F4503E68F11A16F040A22F232F5E
:100C5000342F4427585FF3CF469537952795A795AE
:100C6000F0405395C9F77EF41F16BA0B620B730B55
:100C7000840BBAF09150A1F0FF0FBB1F661F771FC6
:100C8000881FC2F70EC0BA0F621F731F841F48F47B
:100C9000879577956795B795F7959E3F08F0B0CF04
:100CA0009395880F08F09927EE0F979587950895EB
:100CB0000E94420708F481E008950E9471060C9496
:100CC0007D070E94760758F00E946F0740F029F4D4
:100CD0005F3F29F00C94660751110C94B1070C94F6
:100CE0006C070E948E0768F39923B1F3552391F3A3
:100CF000951B550BBB27AA2762177307840738F08B
:100D00009F5F5F4F220F331F441FAA1FA9F335D0E7
:100D10000E2E3AF0E0E832D091505040E695001C9B
:100D2000CAF72BD0FE2F29D0660F771F881FBB1F55
:100D3000261737074807AB07B0E809F0BB0B802D33
:100D4000BF01FF2793585F4F3AF09E3F510578F05F
:100D50000C9466070C94B1075F3FE4F3983ED4F31C
:100D6000869577956795B795F7959F5FC9F7880F33
:100D7000911D9695879597F90895E1E0660F771F85
:100D8000881FBB1F621773078407BA0720F0621B16
:100D9000730B840BBA0BEE1F88F7E09508950E9441
:100DA000D6066894B1110C94B10708950E94960775
:100DB00088F09F5798F0B92F9927B751B0F0E1F01C
:100DC000660F771F881F991F1AF0BA95C9F714C0CC
:100DD000B13091F00E94B007B1E008950C94B007D3
:100DE000672F782F8827B85F39F0B93FCCF3869505
:100DF00077956795B395D9F73EF490958095709562
:100E000061957F4F8F4F9F4F0895E89409C097FBDE
:100E10003EF490958095709561957F4F8F4F9F4FD1
:100E20009923A9F0F92F96E9BB279395F695879515
:100E300077956795B795F111F8CFFAF4BB0F11F4D8
:100E400060FF1BC06F5F7F4F8F4F9F4F16C088237F
:100E500011F096E911C0772321F09EE8872F762FB5
:100E600005C0662371F096E8862F70E060E02AF0F6
:100E70009A95660F771F881FDAF7880F96958795E2
:100E800097F90895990F0008550FAA0BE0E8FEEFB7
:100E900016161706E807F907C0F012161306E4073E
:100EA000F50798F0621B730B840B950B39F40A2637
:100EB00061F0232B242B252B21F408950A2609F415
:100EC000A140A6958FEF811D811D089597F99F6719
:100ED00080E870E060E008959FEF80EC08950024C2
:100EE0000A941616170618060906089500240A948F
:100EF00012161306140605060895092E0394000C15
:100F000011F4882352F0BB0F40F4BF2B11F460FFA3
:100F100004C06F5F7F4F8F4F9F4F089557FD9058CC
:100F2000440F551F59F05F3F71F04795880F97FBAD
:100F3000991F61F09F3F79F0879508951216130667
:100F40001406551FF2CF4695F1DF08C01616170696
:100F50001806991FF1CF86957105610508940895CB
:100F6000E894BB2766277727CB0197F908950E945D
:100F7000420708F48FEF08950E94CF070C947D0775
:100F80000E946F0738F00E94760720F0952311F039
:100F90000C9466070C946C0711240C94B1070E9402
:100FA0008E0770F3959FC1F3950F50E0551F629F18
:100FB000F001729FBB27F00DB11D639FAA27F00DB2
:100FC000B11DAA1F649F6627B00DA11D661F829FD9
:100FD0002227B00DA11D621F739FB00DA11D621FBE
:100FE000839FA00D611D221F749F3327A00D611DDB
:100FF000231F849F600D211D822F762F6A2F1124BD
:101000009F5750409AF0F1F088234AF0EE0FFF1FEF
:10101000BB1F661F771F881F91505040A9F79E3F46
:10102000510580F00C9466070C94B1075F3FE4F320
:10103000983ED4F3869577956795B795F795E7959C
:101040009F5FC1F7FE2B880F911D9695879597F9A5
:1010500008950E944207880B990B0895A1E21A2E69
:10106000AA1BBB1BFD010DC0AA1FBB1FEE1FFF1F4C
:10107000A217B307E407F50720F0A21BB30BE40B9C
:10108000F50B661F771F881F991F1A9469F76095E3
:101090007095809590959B01AC01BD01CF0108959D
:1010A000EE0FFF1F0590F491E02D0994F894FFCF07
:1010B00000000000E901490176013602A70185011F
:1010C00099016E616E00696E66006F7666005370FE
:1010D00065656420696E6372656173652072617411
:1010E000696F3A20000D0A0054656D703A200020A7
:0C10F000C2B043207C2050574D3A200035
:00000001FF
