:100000000C945D000C9485000C9485000C94850084
:100010000C9485000C9485000C9485000C9485004C
:100020000C9485000C9485000C9485000C9485003C
:100030000C9485000C9485000C9485000C9485002C
:100040000C94A7020C9485000C9417030C94F102F5
:100050000C9485000C9485000C9485000C9485000C
:100060000C9485000C94850000000008000201003B
:100070000003040700000000000000000000000072
:10008000250028002B0000000000240027002A0083
:10009000040404040404040402020202020203032E
:1000A0000303030301020408102040800102040836
:1000B0001020010204081020DA0411241FBECFEF23
:1000C000D8E0DEBFCDBF11E0A0E0B1E0EAEDFEE098
:1000D00002C005900D92AE33B107D9F721E0AEE32F
:1000E000B1E001C01D92A43EB207E1F710E0CDE5FA
:1000F000D0E004C02197FE010E946507CC35D107EE
:10010000C9F70E9449030C946B070C94000090E01F
:10011000FC01EC55FF4F249180579F4FFC018491C7
:10012000882399F090E0880F991FFC01EA57FF4F50
:10013000A591B491FC01E458FF4F859194918FB73C
:10014000F894EC91E22BEC938FBF089590E0FC01C2
:10015000E859FF4F2491FC01EC55FF4F3491FC010D
:10016000E057FF4FE491EE23C9F0222339F023300A
:1001700001F1A8F4213019F1223029F1F0E0EE0F5D
:10018000FF1FE458FF4FA591B4918FB7F894EC91FD
:10019000611126C030953E233C938FBF08952730D0
:1001A000A9F02830C9F0243049F7809180008F7D74
:1001B00003C0809180008F7780938000DFCF84B56B
:1001C0008F7784BDDBCF84B58F7DFBCF8091B0006E
:1001D0008F778093B000D2CF8091B0008F7DF9CF20
:1001E0003E2BDACF3FB7F8948091430190914401C0
:1001F000A0914501B091460126B5A89B05C02F3FAF
:1002000019F00196A11DB11D3FBFBA2FA92F982F3C
:100210008827BC01CD01620F711D811D911D42E037
:10022000660F771F881F991F4A95D1F708958F92FF
:100230009F92AF92BF92CF92DF92EF92FF924B01CB
:100240005C010E94F2006B017C010E94F2006C19BB
:100250007D098E099F09683E734081059105A8F3C9
:1002600021E0821A9108A108B10888EEC80E83E047
:10027000D81EE11CF11C81149104A104B10429F7DA
:10028000FF90EF90DF90CF90BF90AF909F908F90B6
:100290000895AF92BF92CF92DF92EF92FF920F93A9
:1002A0001F93CF93DF936C017B018B01040F151F0C
:1002B000EB015E01AE18BF08C017D10759F0699174
:1002C000D601ED91FC910190F081E02DC6010995D8
:1002D000892B79F7C501DF91CF911F910F91FF9085
:1002E000EF90DF90CF90BF90AF900895FC01538DB9
:1002F000448D252F30E0842F90E0821B930B541700
:1003000010F0CF96089501970895FC01918D828D8C
:10031000981761F0A28DAE0FBF2FB11D5D968C9125
:10032000928D9F5F9F73928F90E008958FEF9FEF64
:100330000895FC01918D828D981731F0828DE80F20
:10034000F11D858D90E008958FEF9FEF0895FC01DA
:10035000918D228D892F90E0805C9F4F821B9109A7
:100360008F739927089587E491E00E94A70121E007
:10037000892B09F420E0822F089580E090E0892BFA
:1003800029F00E94B30181110C9400000895FC0132
:10039000A48DA80FB92FB11DA35ABF4F2C91848DE6
:1003A00090E001968F739927848FA689B7892C9343
:1003B000A089B1898C91837080648C93938D848D96
:1003C000981306C00288F389E02D80818F7D808399
:1003D0000895EF92FF920F931F93CF93DF93EC0159
:1003E00081E0888F9B8D8C8D98131AC0E889F989DC
:1003F000808185FF15C09FB7F894EE89FF896083DF
:10040000E889F98980818370806480839FBF81E05F
:1004100090E0DF91CF911F910F91FF90EF900895A1
:10042000F62E0B8D10E00F5F1F4F0F731127E02E7C
:100430008C8D8E110CC00FB607FCFACFE889F989B4
:10044000808185FFF5CFCE010E94C701F1CFEB8DF2
:10045000EC0FFD2FF11DE35AFF4FF0829FB7F89488
:100460000B8FEA89FB8980818062CFCFCF93DF93A6
:10047000EC01888D8823B9F0AA89BB89E889F989BC
:100480008C9185FD03C0808186FD0DC00FB607FCF1
:10049000F7CF8C9185FFF2CF808185FFEDCFCE0124
:1004A0000E94C701E9CFDF91CF910895FC0101902F
:1004B0000020E9F73197AF01481B590BBC0187E4D5
:1004C00091E00C9449018F929F92AF92BF920F934B
:1004D0001F93CF93DF93CDB7DEB7A1970FB6F894F4
:1004E000DEBF0FBECDBF19A2423008F44AE08E0134
:1004F0000F5D1F4F842E912CB12CA12CA5019401CE
:100500000E944307E62FB901CA01EA30F4F4E05D26
:10051000D801EE938D01232B242B252B79F790E026
:1005200080E0109719F0CD010E945602A1960FB6F7
:10053000F894DEBF0FBECDBFDF91CF911F910F9119
:10054000BF90AF909F908F900895E95CE1CF1F928C
:100550000F920FB60F9211242F933F938F939F9377
:10056000AF93BF9380913F0190914001A0914101D1
:10057000B091420130913E0123E0230F2D3758F511
:100580000196A11DB11D20933E0180933F019093E0
:100590004001A0934101B0934201809143019091A9
:1005A0004401A0914501B09146010196A11DB11DE4
:1005B0008093430190934401A0934501B093460179
:1005C000BF91AF919F918F913F912F910F900FBE4F
:1005D0000F901F90189526E8230F0296A11DB11DBC
:1005E000D2CF1F920F920FB60F9211242F933F93E9
:1005F0004F935F936F937F938F939F93AF93BF932B
:10060000EF93FF9387E491E00E94C701FF91EF9180
:10061000BF91AF919F918F917F916F915F914F911A
:100620003F912F910F900FBE0F901F9018951F9222
:100630000F920FB60F9211242F938F939F93EF93E6
:10064000FF93E0915701F09158018081E0915D01A5
:10065000F0915E0182FD1BC09081809160018F5FEF
:100660008F7320916101821741F0E0916001F0E009
:10067000E95BFE4F958F80936001FF91EF919F9111
:100680008F912F910F900FBE0F901F901895808122
:10069000F4CF789484B5826084BD84B5816084BDD4
:1006A00085B5826085BD85B5816085BD80916E0010
:1006B000816080936E001092810080918100826041
:1006C000809381008091810081608093810080917E
:1006D00080008160809380008091B100846080936D
:1006E000B1008091B00081608093B00080917A0069
:1006F000846080937A0080917A00826080937A008F
:1007000080917A00816080937A0080917A0080687D
:1007100080937A001092C1008CE00E9487008DE0E7
:100720000E94870060E08CE00E94A6008DE00E949D
:10073000870060E08DE00E94A600E0915701F091F3
:10074000580182E08083E0915301F09154011082BE
:10075000E0915501F09156018FEC808310925F017A
:10076000E0915B01F0915C0186E08083E0915901AA
:10077000F0915A01808180618083E0915901F0916C
:100780005A01808188608083E0915901F0915A017B
:10079000808180688083E0915901F0915A018081C5
:1007A0008F7D808310E4C0E0D0E08AE0A82EB12CD9
:1007B000C12CD12C760110937C0080917A0080644A
:1007C00080937A0080917A0086FDFCCF809178003A
:1007D00090917900092E000CAA0BBB0BC80ED91EF4
:1007E000EA1EFB1E65E070E080E090E00E941701C9
:1007F00081E0A81AB108F9F6C701B6010E941C06EB
:1008000020E030E040E251E40E9479052AE038E23D
:1008100040EA5BE30E94D10620E030E048EC52E47D
:100820000E94D1066B017C0120E030E048EC51E4ED
:100830000E94CC0687FD3FC061E08CE00E94A600CC
:1008400061E08DE00E94A60089E191E00E945602DD
:10085000A7019601C701B6010E943E07882389F1CE
:1008600080E291E00E9456028CE291E00E945602E2
:1008700020E030E048EC51E4C701B6010E94CC060C
:1008800087FF95C082E191E00E9456028BE391E0E0
:100890000E94560268EC70E080E090E00E94170130
:1008A000209709F482CF0E94B301882309F47DCFF9
:1008B0000E9400007ACF60E08CE00E94A60060E019
:1008C000C0CF46015701E894B7F82FEF3FEF4FE74D
:1008D0005FE7C501B4010E943E0781110DC02FEFF3
:1008E0003FEF4FE75FE7C501B4010E94740518169A
:1008F0001CF484E291E0B6CF2FEF3FEF4FE75FE4C7
:10090000C701B6010E94CC0618161CF488E291E0DB
:10091000A9CF2FEF3FEF4FE75FECC701B6010E9471
:10092000740587FDF3CF20E030E0A901C701B601CF
:100930000E94740587FF38C06DE287E491E00E9451
:10094000E901C701B60190582DEC3CEC4CE45DE3A5
:100950000E9408052B013C010E94EB054B015C0144
:100960000E941A069B01AC01C301B2010E94070557
:100970002B013C014AE0C501B4010E9463026EE212
:1009800087E491E00E94E90120E030E040E251E498
:10099000C301B2010E94D1060E94EB0590E080E005
:1009A0004AE00E94630260CFC701B601CDCF86E165
:1009B00091E06ACFE7E4F1E01382128288EE93E0DF
:1009C000A0E0B0E084839583A683B78384E091E0C0
:1009D0009183808385EC90E09587848784EC90E018
:1009E0009787868780EC90E0918B808B81EC90E0FC
:1009F000938B828B82EC90E0958B848B86EC90E0DD
:100A0000978B868B118E128E138E148E08955058EC
:100A1000BB27AA270E941F050C9492060E948406F9
:100A200038F00E948B0620F039F49F3F19F426F429
:100A30000C9481060EF4E095E7FB0C947B06E92FFD
:100A40000E94A30658F3BA17620773078407950735
:100A500020F079F4A6F50C94C5060EF4E0950B2E63
:100A6000BA2FA02D0B01B90190010C01CA01A00100
:100A70001124FF27591B99F0593F50F4503E68F15B
:100A80001A16F040A22F232F342F4427585FF3CF9C
:100A9000469537952795A795F0405395C9F77EF46D
:100AA0001F16BA0B620B730B840BBAF09150A1F0B6
:100AB000FF0FBB1F661F771F881FC2F70EC0BA0F3C
:100AC000621F731F841F48F4879577956795B795C4
:100AD000F7959E3F08F0B0CF9395880F08F09927BF
:100AE000EE0F9795879508950E94570608F481E0C8
:100AF00008950E948D050C9492060E948B0658F072
:100B00000E94840640F029F45F3F29F00C947B0694
:100B100051110C94C6060C9481060E94A30668F33A
:100B20009923B1F3552391F3951B550BBB27AA27A6
:100B300062177307840738F09F5F5F4F220F331FE0
:100B4000441FAA1FA9F335D00E2E3AF0E0E832D0A8
:100B500091505040E695001CCAF72BD0FE2F29D0AB
:100B6000660F771F881FBB1F261737074807AB077D
:100B7000B0E809F0BB0B802DBF01FF2793585F4FF2
:100B80003AF09E3F510578F00C947B060C94C60613
:100B90005F3FE4F3983ED4F3869577956795B795D4
:100BA000F7959F5FC9F7880F911D9695879597F9DF
:100BB0000895E1E0660F771F881FBB1F6217730758
:100BC0008407BA0720F0621B730B840BBA0BEE1F6D
:100BD00088F7E09508950E94AB0688F09F5798F03B
:100BE000B92F9927B751B0F0E1F0660F771F881F32
:100BF000991F1AF0BA95C9F714C0B13091F00E944C
:100C0000C506B1E008950C94C506672F782F882794
:100C1000B85F39F0B93FCCF3869577956795B39572
:100C2000D9F73EF490958095709561957F4F8F4FE1
:100C30009F4F0895E89409C097FB3EF490958095E6
:100C4000709561957F4F8F4F9F4F9923A9F0F92F92
:100C500096E9BB279395F695879577956795B79510
:100C6000F111F8CFFAF4BB0F11F460FF1BC06F5FF6
:100C70007F4F8F4F9F4F16C0882311F096E911C008
:100C8000772321F09EE8872F762F05C0662371F029
:100C900096E8862F70E060E02AF09A95660F771F3D
:100CA000881FDAF7880F9695879597F90895990F19
:100CB0000008550FAA0BE0E8FEEF16161706E80726
:100CC000F907C0F012161306E407F50798F0621B47
:100CD000730B840B950B39F40A2661F0232B242B1C
:100CE000252B21F408950A2609F4A140A6958FEF3B
:100CF000811D811D089597F99F6780E870E060E08D
:100D000008959FEF80EC089500240A9416161706A4
:100D100018060906089500240A94121613061406EC
:100D200005060895092E0394000C11F4882352F04F
:100D3000BB0F40F4BF2B11F460FF04C06F5F7F4F07
:100D40008F4F9F4F089557FD9058440F551F59F0EE
:100D50005F3F71F04795880F97FB991F61F09F3FA8
:100D600079F087950895121613061406551FF2CFD1
:100D70004695F1DF08C0161617061806991FF1CF21
:100D800086957105610508940895E894BB27662748
:100D90007727CB0197F908950E94570608F48FEF43
:100DA00008950E94E4060C9492060E94840638F08E
:100DB0000E948B0620F0952311F00C947B060C9476
:100DC000810611240C94C6060E94A30670F3959F19
:100DD000C1F3950F50E0551F629FF001729FBB2732
:100DE000F00DB11D639FAA27F00DB11DAA1F649FCE
:100DF0006627B00DA11D661F829F2227B00DA11D81
:100E0000621F739FB00DA11D621F839FA00D611D06
:100E1000221F749F3327A00D611D231F849F600D27
:100E2000211D822F762F6A2F11249F5750409AF050
:100E3000F1F088234AF0EE0FFF1FBB1F661F771FDC
:100E4000881F91505040A9F79E3F510580F00C94A7
:100E50007B060C94C6065F3FE4F3983ED4F3869578
:100E600077956795B795F795E7959F5FC1F7FE2B47
:100E7000880F911D9695879597F908950E945706BA
:100E8000880B990B0895A1E21A2EAA1BBB1BFD012A
:100E90000DC0AA1FBB1FEE1FFF1FA217B307E40759
:100EA000F50720F0A21BB30BE40BF50B661F771FB1
:100EB000881F991F1A9469F7609570958095909591
:100EC0009B01AC01BD01CF010895EE0FFF1F0590FE
:0A0ED000F491E02D0994F894FFCF8F
:100EDA0000000000E901490176013602A7018501F7
:100EEA0099014F4646004F4E0054656D703A2000F6
:100EFA006E616E00696E66006F76660020C2B0434E
:0E0F0A00207C2052656C61793A20000D0A00AF
:00000001FF
